{
  "contractName": "Bidding",
  "abi": [
    {
      "inputs": [],
      "stateMutability": "nonpayable",
      "type": "constructor"
    },
    {
      "anonymous": false,
      "inputs": [
        {
          "indexed": false,
          "internalType": "uint256",
          "name": "bidId",
          "type": "uint256"
        },
        {
          "indexed": true,
          "internalType": "address",
          "name": "buyer",
          "type": "address"
        },
        {
          "indexed": false,
          "internalType": "uint256",
          "name": "amount",
          "type": "uint256"
        }
      ],
      "name": "BidAccepted",
      "type": "event"
    },
    {
      "anonymous": false,
      "inputs": [
        {
          "indexed": false,
          "internalType": "uint256",
          "name": "bidId",
          "type": "uint256"
        },
        {
          "indexed": true,
          "internalType": "address",
          "name": "buyer",
          "type": "address"
        },
        {
          "indexed": false,
          "internalType": "uint256",
          "name": "amount",
          "type": "uint256"
        }
      ],
      "name": "NewBid",
      "type": "event"
    },
    {
      "inputs": [],
      "name": "bidCounter",
      "outputs": [
        {
          "internalType": "uint256",
          "name": "",
          "type": "uint256"
        }
      ],
      "stateMutability": "view",
      "type": "function",
      "constant": true
    },
    {
      "inputs": [
        {
          "internalType": "uint256",
          "name": "",
          "type": "uint256"
        }
      ],
      "name": "bids",
      "outputs": [
        {
          "internalType": "uint256",
          "name": "bidId",
          "type": "uint256"
        },
        {
          "internalType": "address",
          "name": "buyer",
          "type": "address"
        },
        {
          "internalType": "uint256",
          "name": "amount",
          "type": "uint256"
        },
        {
          "internalType": "bool",
          "name": "accepted",
          "type": "bool"
        }
      ],
      "stateMutability": "view",
      "type": "function",
      "constant": true
    },
    {
      "inputs": [],
      "name": "owner",
      "outputs": [
        {
          "internalType": "address",
          "name": "",
          "type": "address"
        }
      ],
      "stateMutability": "view",
      "type": "function",
      "constant": true
    },
    {
      "inputs": [
        {
          "internalType": "uint256",
          "name": "_amount",
          "type": "uint256"
        }
      ],
      "name": "placeBid",
      "outputs": [],
      "stateMutability": "nonpayable",
      "type": "function"
    },
    {
      "inputs": [
        {
          "internalType": "uint256",
          "name": "_bidId",
          "type": "uint256"
        }
      ],
      "name": "acceptBid",
      "outputs": [],
      "stateMutability": "nonpayable",
      "type": "function"
    },
    {
      "inputs": [
        {
          "internalType": "uint256",
          "name": "_bidId",
          "type": "uint256"
        }
      ],
      "name": "getBid",
      "outputs": [
        {
          "components": [
            {
              "internalType": "uint256",
              "name": "bidId",
              "type": "uint256"
            },
            {
              "internalType": "address",
              "name": "buyer",
              "type": "address"
            },
            {
              "internalType": "uint256",
              "name": "amount",
              "type": "uint256"
            },
            {
              "internalType": "bool",
              "name": "accepted",
              "type": "bool"
            }
          ],
          "internalType": "struct Bidding.Bid",
          "name": "",
          "type": "tuple"
        }
      ],
      "stateMutability": "view",
      "type": "function",
      "constant": true
    }
  ],
  "bytecode": "0x608060405234801561001057600080fd5b50600280546001600160a01b03191633179055610565806100326000396000f3fe608060405234801561001057600080fd5b50600436106100625760003560e01c806303f69354146100675780632b1fd58a146100835780633c889e6f146100985780634423c5f1146100e95780638da5cb5b146101565780639979ef4514610181575b600080fd5b61007060005481565b6040519081526020015b60405180910390f35b6100966100913660046104ef565b610194565b005b6100ab6100a63660046104ef565b610309565b60405161007a9190815181526020808301516001600160a01b0316908201526040808301519082015260609182015115159181019190915260800190565b61012c6100f73660046104ef565b600160208190526000918252604090912080549181015460028201546003909201546001600160a01b03909116919060ff1684565b604080519485526001600160a01b039093166020850152918301521515606082015260800161007a565b600254610169906001600160a01b031681565b6040516001600160a01b03909116815260200161007a565b61009661018f3660046104ef565b6103d2565b6002546001600160a01b031633146101f35760405162461bcd60e51b815260206004820152601e60248201527f4f6e6c7920746865206f776e65722063616e206163636570742062696473000060448201526064015b60405180910390fd5b60008111801561020557506000548111155b6102425760405162461bcd60e51b815260206004820152600e60248201526d125b9d985b1a5908189a5908125160921b60448201526064016101ea565b60008181526001602052604090206003015460ff161561029b5760405162461bcd60e51b8152602060048201526014602482015273109a5908185b1c9958591e481858d8d95c1d195960621b60448201526064016101ea565b60008181526001602081815260409283902060038101805460ff191684179055918201546002909201548351858152918201526001600160a01b03909116917f91a721693afff25f233ac308edbd2fa15ad7d4dfacdd164dd4e8c57ab72f4ae991015b60405180910390a250565b60408051608081018252600080825260208201819052918101829052606081019190915260008211801561033f57506000548211155b6103805760405162461bcd60e51b8152602060048201526012602482015271109a5908191bd95cc81b9bdd08195e1a5cdd60721b60448201526064016101ea565b50600090815260016020818152604092839020835160808101855281548152928101546001600160a01b03169183019190915260028101549282019290925260039091015460ff161515606082015290565b6000811161042e5760405162461bcd60e51b8152602060048201526024808201527f42696420616d6f756e74206d7573742062652067726561746572207468616e206044820152637a65726f60e01b60648201526084016101ea565b60008054908061043d83610508565b9091555050604080516080810182526000805480835233602080850182815285870188815260608701868152948652600180845288872097518855915191870180546001600160a01b0319166001600160a01b039093169290921790915551600286015591516003909401805460ff1916941515949094179093559054835190815290810184905290917f558a0d5d5468d74b0db24c74eb348b42271c2ebb4c9e953ced38aaed95fa436191016102fe565b60006020828403121561050157600080fd5b5035919050565b60006001820161052857634e487b7160e01b600052601160045260246000fd5b506001019056fea264697066735822122082ee70100488bef0cc1a5e8e313dd57f92b327da3c193db078c04d785a9af8bb64736f6c63430008130033",
  "immutableReferences": {},
  "source": "// SPDX-License-Identifier: MIT\r\npragma solidity ^0.8.19;\r\n\r\ncontract Bidding {\r\n    struct Bid {\r\n        uint256 bidId;\r\n        address buyer;\r\n        uint256 amount;\r\n        bool accepted;\r\n    }\r\n\r\n    uint256 public bidCounter;\r\n    mapping(uint256 => Bid) public bids;\r\n    address public owner;\r\n\r\n    event NewBid(uint256 bidId, address indexed buyer, uint256 amount);\r\n    event BidAccepted(uint256 bidId, address indexed buyer, uint256 amount);\r\n\r\n    modifier onlyOwner() {\r\n        require(msg.sender == owner, \"Only the owner can accept bids\");\r\n        _;\r\n    }\r\n\r\n    constructor() {\r\n        owner = msg.sender;\r\n    }\r\n\r\n    function placeBid(uint256 _amount) public {\r\n        require(_amount > 0, \"Bid amount must be greater than zero\");\r\n\r\n        bidCounter++;\r\n        bids[bidCounter] = Bid(bidCounter, msg.sender, _amount, false);\r\n        emit NewBid(bidCounter, msg.sender, _amount);\r\n    }\r\n\r\n    function acceptBid(uint256 _bidId) public onlyOwner {\r\n        require(_bidId > 0 && _bidId <= bidCounter, \"Invalid bid ID\");\r\n        require(!bids[_bidId].accepted, \"Bid already accepted\");\r\n\r\n        bids[_bidId].accepted = true;\r\n        emit BidAccepted(_bidId, bids[_bidId].buyer, bids[_bidId].amount);\r\n    }\r\n\r\n    function getBid(uint256 _bidId) public view returns (Bid memory) {\r\n        require(_bidId > 0 && _bidId <= bidCounter, \"Bid does not exist\");\r\n        return bids[_bidId];\r\n    }\r\n}\r\n",
  "sourcePath": "C:\\Users\\Dan Mody\\OneDrive\\Desktop\\mp\\GitHub\\HarvestHub\\build\\contracts\\Bidding.sol",
  "compiler": {
    "name": "solc",
    "version": "0.8.19+commit.7dd6d404.Emscripten.clang"
  },
  "schemaVersion": "3.4.16",
  "updatedAt": "2025-03-18T16:25:10.626Z",
  "networkType": "ethereum",
  "devdoc": {
    "kind": "dev",
    "methods": {},
    "version": 1
  },
  "userdoc": {
    "kind": "user",
    "methods": {},
    "version": 1
  }
}