{
  "contractName": "Migrations",
  "abi": [
    {
      "inputs": [],
      "stateMutability": "nonpayable",
      "type": "constructor"
    },
    {
      "anonymous": false,
      "inputs": [
        {
          "indexed": false,
          "internalType": "uint256",
          "name": "migrationId",
          "type": "uint256"
        }
      ],
      "name": "MigrationCompleted",
      "type": "event"
    },
    {
      "inputs": [],
      "name": "lastCompletedMigration",
      "outputs": [
        {
          "internalType": "uint256",
          "name": "",
          "type": "uint256"
        }
      ],
      "stateMutability": "view",
      "type": "function",
      "constant": true
    },
    {
      "inputs": [],
      "name": "owner",
      "outputs": [
        {
          "internalType": "address",
          "name": "",
          "type": "address"
        }
      ],
      "stateMutability": "view",
      "type": "function",
      "constant": true
    },
    {
      "inputs": [
        {
          "internalType": "uint256",
          "name": "completed",
          "type": "uint256"
        }
      ],
      "name": "setCompleted",
      "outputs": [],
      "stateMutability": "nonpayable",
      "type": "function"
    }
  ],
  "bytecode": "0x608060405234801561001057600080fd5b50600080546001600160a01b03191633179055610195806100326000396000f3fe608060405234801561001057600080fd5b50600436106100415760003560e01c80638da5cb5b14610046578063fbdbad3c14610076578063fdacd5761461008d575b600080fd5b600054610059906001600160a01b031681565b6040516001600160a01b0390911681526020015b60405180910390f35b61007f60015481565b60405190815260200161006d565b6100a061009b366004610146565b6100a2565b005b6000546001600160a01b0316331461010b5760405162461bcd60e51b815260206004820152602260248201527f4f6e6c79206f776e65722063616e20706572666f726d2074686973206163746960448201526137b760f11b606482015260840160405180910390fd5b60018190556040518181527f01ca334a07f703320ca75a31f004726757eec021b91a6d98dd7b369f127ecca09060200160405180910390a150565b60006020828403121561015857600080fd5b503591905056fea2646970667358221220673af4240d37f29d91c8680210908c17dc2b6693fec40d802f0d908dfa626b5664736f6c63430008130033",
  "immutableReferences": {},
  "source": "// SPDX-License-Identifier: MIT\r\npragma solidity ^0.8.19;\r\n\r\ncontract Migrations {\r\n    address public owner;\r\n    uint256 public lastCompletedMigration;\r\n\r\n    event MigrationCompleted(uint256 migrationId);\r\n\r\n    modifier onlyOwner() {\r\n        require(msg.sender == owner, \"Only owner can perform this action\");\r\n        _;\r\n    }\r\n\r\n    constructor() {\r\n        owner = msg.sender;\r\n    }\r\n\r\n    function setCompleted(uint256 completed) public onlyOwner {\r\n        lastCompletedMigration = completed;\r\n        emit MigrationCompleted(completed);\r\n    }\r\n}\r\n",
  "sourcePath": "C:\\Users\\Dan Mody\\OneDrive\\Desktop\\mp\\GitHub\\HarvestHub\\build\\contracts\\Migrations.sol",
  "compiler": {
    "name": "solc",
    "version": "0.8.19+commit.7dd6d404.Emscripten.clang"
  },
  "schemaVersion": "3.4.16",
  "updatedAt": "2025-03-18T16:25:10.636Z",
  "networkType": "ethereum",
  "devdoc": {
    "kind": "dev",
    "methods": {},
    "version": 1
  },
  "userdoc": {
    "kind": "user",
    "methods": {},
    "version": 1
  }
}