{
  "contractName": "TransactionLedger",
  "abi": [
    {
      "inputs": [],
      "stateMutability": "nonpayable",
      "type": "constructor"
    },
    {
      "anonymous": false,
      "inputs": [
        {
          "indexed": true,
          "internalType": "uint256",
          "name": "transactionId",
          "type": "uint256"
        },
        {
          "indexed": true,
          "internalType": "address",
          "name": "sender",
          "type": "address"
        },
        {
          "indexed": true,
          "internalType": "address",
          "name": "receiver",
          "type": "address"
        },
        {
          "indexed": false,
          "internalType": "uint256",
          "name": "amount",
          "type": "uint256"
        },
        {
          "indexed": false,
          "internalType": "string",
          "name": "cropName",
          "type": "string"
        },
        {
          "indexed": false,
          "internalType": "string",
          "name": "message",
          "type": "string"
        },
        {
          "indexed": false,
          "internalType": "uint256",
          "name": "timestamp",
          "type": "uint256"
        }
      ],
      "name": "Transfer",
      "type": "event"
    },
    {
      "inputs": [],
      "name": "transactionCounter",
      "outputs": [
        {
          "internalType": "uint256",
          "name": "",
          "type": "uint256"
        }
      ],
      "stateMutability": "view",
      "type": "function",
      "constant": true
    },
    {
      "inputs": [
        {
          "internalType": "address",
          "name": "_receiver",
          "type": "address"
        },
        {
          "internalType": "uint256",
          "name": "_amount",
          "type": "uint256"
        },
        {
          "internalType": "string",
          "name": "_cropName",
          "type": "string"
        },
        {
          "internalType": "string",
          "name": "_message",
          "type": "string"
        }
      ],
      "name": "addTransaction",
      "outputs": [],
      "stateMutability": "nonpayable",
      "type": "function"
    },
    {
      "inputs": [
        {
          "internalType": "uint256",
          "name": "_transactionId",
          "type": "uint256"
        }
      ],
      "name": "getTransaction",
      "outputs": [
        {
          "components": [
            {
              "internalType": "uint256",
              "name": "transactionId",
              "type": "uint256"
            },
            {
              "internalType": "address",
              "name": "sender",
              "type": "address"
            },
            {
              "internalType": "address",
              "name": "receiver",
              "type": "address"
            },
            {
              "internalType": "uint256",
              "name": "amount",
              "type": "uint256"
            },
            {
              "internalType": "string",
              "name": "cropName",
              "type": "string"
            },
            {
              "internalType": "string",
              "name": "message",
              "type": "string"
            },
            {
              "internalType": "uint256",
              "name": "timestamp",
              "type": "uint256"
            }
          ],
          "internalType": "struct TransactionLedger.Transaction",
          "name": "",
          "type": "tuple"
        }
      ],
      "stateMutability": "view",
      "type": "function",
      "constant": true
    }
  ],
  "bytecode": "0x608060405234801561001057600080fd5b50600080556108a2806100246000396000f3fe608060405234801561001057600080fd5b50600436106100415760003560e01c806314e887e81461004657806333ea3dc8146100625780636d1b6bb114610082575b600080fd5b61004f60005481565b6040519081526020015b60405180910390f35b6100756100703660046104aa565b610097565b6040516100599190610509565b610095610090366004610633565b6102d6565b005b6100e96040518060e001604052806000815260200160006001600160a01b0316815260200160006001600160a01b03168152602001600081526020016060815260200160608152602001600081525090565b6000821180156100fb57506000548211155b61014c5760405162461bcd60e51b815260206004820152601a60248201527f5472616e73616374696f6e20646f6573206e6f7420657869737400000000000060448201526064015b60405180910390fd5b600082815260016020818152604092839020835160e08101855281548152928101546001600160a01b0390811692840192909252600281015490911692820192909252600382015460608201526004820180549192916080840191906101b1906106bf565b80601f01602080910402602001604051908101604052809291908181526020018280546101dd906106bf565b801561022a5780601f106101ff5761010080835404028352916020019161022a565b820191906000526020600020905b81548152906001019060200180831161020d57829003601f168201915b50505050508152602001600582018054610243906106bf565b80601f016020809104026020016040519081016040528092919081815260200182805461026f906106bf565b80156102bc5780601f10610291576101008083540402835291602001916102bc565b820191906000526020600020905b81548152906001019060200180831161029f57829003601f168201915b505050505081526020016006820154815250509050919050565b6001600160a01b03841661032c5760405162461bcd60e51b815260206004820152601860248201527f496e76616c6964207265636569766572206164647265737300000000000000006044820152606401610143565b6000831161037c5760405162461bcd60e51b815260206004820181905260248201527f416d6f756e74206d7573742062652067726561746572207468616e207a65726f6044820152606401610143565b60008054908061038b836106f9565b90915550506040805160e081018252600080548083523360208085019182526001600160a01b038a8116868801908152606087018b8152608088018b815260a089018b90524260c08a01529587526001938490529790952086518155925191830180549282166001600160a01b0319938416179055935160028301805491909516911617909255925160038201559151909190600482019061042d908261076f565b5060a08201516005820190610442908261076f565b5060c08201518160060155905050836001600160a01b0316336001600160a01b03166000547ffd64a769b93151d1175232d5327da93a5a3563bde4078778edfcaa565fc40e488686864260405161049c949392919061082f565b60405180910390a450505050565b6000602082840312156104bc57600080fd5b5035919050565b6000815180845260005b818110156104e9576020818501810151868301820152016104cd565b506000602082860101526020601f19601f83011685010191505092915050565b60208152815160208201526000602083015160018060a01b038082166040850152806040860151166060850152505060608301516080830152608083015160e060a084015261055c6101008401826104c3565b905060a0840151601f198483030160c085015261057982826104c3565b91505060c084015160e08401528091505092915050565b634e487b7160e01b600052604160045260246000fd5b600082601f8301126105b757600080fd5b813567ffffffffffffffff808211156105d2576105d2610590565b604051601f8301601f19908116603f011681019082821181831017156105fa576105fa610590565b8160405283815286602085880101111561061357600080fd5b836020870160208301376000602085830101528094505050505092915050565b6000806000806080858703121561064957600080fd5b84356001600160a01b038116811461066057600080fd5b935060208501359250604085013567ffffffffffffffff8082111561068457600080fd5b610690888389016105a6565b935060608701359150808211156106a657600080fd5b506106b3878288016105a6565b91505092959194509250565b600181811c908216806106d357607f821691505b6020821081036106f357634e487b7160e01b600052602260045260246000fd5b50919050565b60006001820161071957634e487b7160e01b600052601160045260246000fd5b5060010190565b601f82111561076a57600081815260208120601f850160051c810160208610156107475750805b601f850160051c820191505b8181101561076657828155600101610753565b5050505b505050565b815167ffffffffffffffff81111561078957610789610590565b61079d8161079784546106bf565b84610720565b602080601f8311600181146107d257600084156107ba5750858301515b600019600386901b1c1916600185901b178555610766565b600085815260208120601f198616915b82811015610801578886015182559484019460019091019084016107e2565b508582101561081f5787850151600019600388901b60f8161c191681555b5050505050600190811b01905550565b84815260806020820152600061084860808301866104c3565b828103604084015261085a81866104c3565b9150508260608301529594505050505056fea2646970667358221220415433e4da07845d92df5fc01d5e25dea243f54f06ecd9376cba7df5a5e765f664736f6c63430008130033",
  "immutableReferences": {},
  "source": "// SPDX-License-Identifier: MIT\r\npragma solidity ^0.8.19;\r\n\r\ncontract TransactionLedger {\r\n    struct Transaction {\r\n        uint256 transactionId;\r\n        address sender;\r\n        address receiver;\r\n        uint256 amount;\r\n        string cropName;\r\n        string message;\r\n        uint256 timestamp;\r\n    }\r\n\r\n    uint256 public transactionCounter;\r\n    mapping(uint256 => Transaction) private transactions;\r\n\r\n    event Transfer(\r\n        uint256 indexed transactionId,\r\n        address indexed sender,\r\n        address indexed receiver,\r\n        uint256 amount,\r\n        string cropName,\r\n        string message,\r\n        uint256 timestamp\r\n    );\r\n\r\n    constructor() {\r\n        transactionCounter = 0;\r\n    }\r\n\r\n    function addTransaction(\r\n        address _receiver,\r\n        uint256 _amount,\r\n        string memory _cropName,\r\n        string memory _message\r\n    ) public {\r\n        require(_receiver != address(0), \"Invalid receiver address\");\r\n        require(_amount > 0, \"Amount must be greater than zero\");\r\n\r\n        transactionCounter++;\r\n        transactions[transactionCounter] = Transaction(\r\n            transactionCounter, msg.sender, _receiver, _amount, _cropName, _message, block.timestamp\r\n        );\r\n\r\n        emit Transfer(transactionCounter, msg.sender, _receiver, _amount, _cropName, _message, block.timestamp);\r\n    }\r\n\r\n    function getTransaction(uint256 _transactionId) public view returns (Transaction memory) {\r\n        require(_transactionId > 0 && _transactionId <= transactionCounter, \"Transaction does not exist\");\r\n        return transactions[_transactionId];\r\n    }\r\n}\r\n",
  "sourcePath": "C:\\Users\\Dan Mody\\OneDrive\\Desktop\\mp\\GitHub\\HarvestHub\\b\\contracts\\TransactionLedger.sol",
  "compiler": {
    "name": "solc",
    "version": "0.8.19+commit.7dd6d404.Emscripten.clang"
  },
  "schemaVersion": "3.4.16",
  "updatedAt": "2025-04-08T02:15:47.154Z",
  "networkType": "ethereum",
  "devdoc": {
    "kind": "dev",
    "methods": {},
    "version": 1
  },
  "userdoc": {
    "kind": "user",
    "methods": {},
    "version": 1
  }
}