{
  "contractName": "TransactionLedger",
  "abi": [
    {
      "inputs": [
        {
          "internalType": "uint256",
          "name": "",
          "type": "uint256"
        }
      ],
      "name": "transactions",
      "outputs": [
        {
          "internalType": "string",
          "name": "cropName",
          "type": "string"
        },
        {
          "internalType": "uint256",
          "name": "pricePerKg",
          "type": "uint256"
        },
        {
          "internalType": "uint256",
          "name": "quantity",
          "type": "uint256"
        },
        {
          "internalType": "string",
          "name": "buyerName",
          "type": "string"
        },
        {
          "internalType": "string",
          "name": "buyerAddress",
          "type": "string"
        },
        {
          "internalType": "string",
          "name": "sellerName",
          "type": "string"
        },
        {
          "internalType": "string",
          "name": "sellerAddress",
          "type": "string"
        },
        {
          "internalType": "uint256",
          "name": "totalAmount",
          "type": "uint256"
        },
        {
          "internalType": "uint256",
          "name": "timestamp",
          "type": "uint256"
        }
      ],
      "stateMutability": "view",
      "type": "function",
      "constant": true
    },
    {
      "inputs": [
        {
          "internalType": "string",
          "name": "cropName",
          "type": "string"
        },
        {
          "internalType": "uint256",
          "name": "pricePerKg",
          "type": "uint256"
        },
        {
          "internalType": "uint256",
          "name": "quantity",
          "type": "uint256"
        },
        {
          "internalType": "string",
          "name": "buyerName",
          "type": "string"
        },
        {
          "internalType": "string",
          "name": "buyerAddress",
          "type": "string"
        },
        {
          "internalType": "string",
          "name": "sellerName",
          "type": "string"
        },
        {
          "internalType": "string",
          "name": "sellerAddress",
          "type": "string"
        },
        {
          "internalType": "uint256",
          "name": "totalAmount",
          "type": "uint256"
        },
        {
          "internalType": "uint256",
          "name": "timestamp",
          "type": "uint256"
        }
      ],
      "name": "storeTransaction",
      "outputs": [],
      "stateMutability": "nonpayable",
      "type": "function"
    },
    {
      "inputs": [],
      "name": "getTransactionCount",
      "outputs": [
        {
          "internalType": "uint256",
          "name": "",
          "type": "uint256"
        }
      ],
      "stateMutability": "view",
      "type": "function",
      "constant": true
    },
    {
      "inputs": [
        {
          "internalType": "uint256",
          "name": "index",
          "type": "uint256"
        }
      ],
      "name": "getTransaction",
      "outputs": [
        {
          "internalType": "string",
          "name": "",
          "type": "string"
        },
        {
          "internalType": "uint256",
          "name": "",
          "type": "uint256"
        },
        {
          "internalType": "uint256",
          "name": "",
          "type": "uint256"
        },
        {
          "internalType": "string",
          "name": "",
          "type": "string"
        },
        {
          "internalType": "string",
          "name": "",
          "type": "string"
        },
        {
          "internalType": "string",
          "name": "",
          "type": "string"
        },
        {
          "internalType": "string",
          "name": "",
          "type": "string"
        },
        {
          "internalType": "uint256",
          "name": "",
          "type": "uint256"
        },
        {
          "internalType": "uint256",
          "name": "",
          "type": "uint256"
        }
      ],
      "stateMutability": "view",
      "type": "function",
      "constant": true
    }
  ],
  "bytecode": "0x608060405234801561001057600080fd5b50610c7a806100206000396000f3fe608060405234801561001057600080fd5b506004361061004c5760003560e01c80632e7700f01461005157806333ea3dc8146100675780639ace38c21461008f578063df38b2ad146100a2575b600080fd5b6000546040519081526020015b60405180910390f35b61007a610075366004610860565b6100b7565b60405161005e999897969594939291906108bf565b61007a61009d366004610860565b610445565b6100b56100b03660046109ec565b61074b565b005b60606000806060806060806000806000808b815481106100d9576100d9610ae5565b90600052602060002090600902016040518061012001604052908160008201805461010390610afb565b80601f016020809104026020016040519081016040528092919081815260200182805461012f90610afb565b801561017c5780601f106101515761010080835404028352916020019161017c565b820191906000526020600020905b81548152906001019060200180831161015f57829003601f168201915b5050505050815260200160018201548152602001600282015481526020016003820180546101a990610afb565b80601f01602080910402602001604051908101604052809291908181526020018280546101d590610afb565b80156102225780601f106101f757610100808354040283529160200191610222565b820191906000526020600020905b81548152906001019060200180831161020557829003601f168201915b5050505050815260200160048201805461023b90610afb565b80601f016020809104026020016040519081016040528092919081815260200182805461026790610afb565b80156102b45780601f10610289576101008083540402835291602001916102b4565b820191906000526020600020905b81548152906001019060200180831161029757829003601f168201915b505050505081526020016005820180546102cd90610afb565b80601f01602080910402602001604051908101604052809291908181526020018280546102f990610afb565b80156103465780601f1061031b57610100808354040283529160200191610346565b820191906000526020600020905b81548152906001019060200180831161032957829003601f168201915b5050505050815260200160068201805461035f90610afb565b80601f016020809104026020016040519081016040528092919081815260200182805461038b90610afb565b80156103d85780601f106103ad576101008083540402835291602001916103d8565b820191906000526020600020905b8154815290600101906020018083116103bb57829003601f168201915b50505050508152602001600782015481526020016008820154815250509050806000015181602001518260400151836060015184608001518560a001518660c001518760e00151886101000151995099509950995099509950995099509950509193959799909294969850565b6000818154811061045557600080fd5b906000526020600020906009020160009150905080600001805461047890610afb565b80601f01602080910402602001604051908101604052809291908181526020018280546104a490610afb565b80156104f15780601f106104c6576101008083540402835291602001916104f1565b820191906000526020600020905b8154815290600101906020018083116104d457829003601f168201915b50505050509080600101549080600201549080600301805461051290610afb565b80601f016020809104026020016040519081016040528092919081815260200182805461053e90610afb565b801561058b5780601f106105605761010080835404028352916020019161058b565b820191906000526020600020905b81548152906001019060200180831161056e57829003601f168201915b5050505050908060040180546105a090610afb565b80601f01602080910402602001604051908101604052809291908181526020018280546105cc90610afb565b80156106195780601f106105ee57610100808354040283529160200191610619565b820191906000526020600020905b8154815290600101906020018083116105fc57829003601f168201915b50505050509080600501805461062e90610afb565b80601f016020809104026020016040519081016040528092919081815260200182805461065a90610afb565b80156106a75780601f1061067c576101008083540402835291602001916106a7565b820191906000526020600020905b81548152906001019060200180831161068a57829003601f168201915b5050505050908060060180546106bc90610afb565b80601f01602080910402602001604051908101604052809291908181526020018280546106e890610afb565b80156107355780601f1061070a57610100808354040283529160200191610735565b820191906000526020600020905b81548152906001019060200180831161071857829003601f168201915b5050505050908060070154908060080154905089565b60408051610120810182528a8152602081018a9052908101889052606081018790526080810186905260a0810185905260c0810184905260e08101839052610100810182905260008054600181018255908052815182916009027f290decd9548b62a8d60345a988386fc84ba6bc95484008f6362f93160ef3e563019081906107d49082610b84565b506020820151600182015560408201516002820155606082015160038201906107fd9082610b84565b50608082015160048201906108129082610b84565b5060a082015160058201906108279082610b84565b5060c0820151600682019061083c9082610b84565b5060e082015181600701556101008201518160080155505050505050505050505050565b60006020828403121561087257600080fd5b5035919050565b6000815180845260005b8181101561089f57602081850181015186830182015201610883565b506000602082860101526020601f19601f83011685010191505092915050565b60006101208083526108d38184018d610879565b90508a602084015289604084015282810360608401526108f3818a610879565b905082810360808401526109078189610879565b905082810360a084015261091b8188610879565b905082810360c084015261092f8187610879565b60e084019590955250506101000152979650505050505050565b634e487b7160e01b600052604160045260246000fd5b600082601f83011261097057600080fd5b813567ffffffffffffffff8082111561098b5761098b610949565b604051601f8301601f19908116603f011681019082821181831017156109b3576109b3610949565b816040528381528660208588010111156109cc57600080fd5b836020870160208301376000602085830101528094505050505092915050565b60008060008060008060008060006101208a8c031215610a0b57600080fd5b893567ffffffffffffffff80821115610a2357600080fd5b610a2f8d838e0161095f565b9a5060208c0135995060408c0135985060608c0135915080821115610a5357600080fd5b610a5f8d838e0161095f565b975060808c0135915080821115610a7557600080fd5b610a818d838e0161095f565b965060a08c0135915080821115610a9757600080fd5b610aa38d838e0161095f565b955060c08c0135915080821115610ab957600080fd5b50610ac68c828d0161095f565b93505060e08a013591506101008a013590509295985092959850929598565b634e487b7160e01b600052603260045260246000fd5b600181811c90821680610b0f57607f821691505b602082108103610b2f57634e487b7160e01b600052602260045260246000fd5b50919050565b601f821115610b7f57600081815260208120601f850160051c81016020861015610b5c5750805b601f850160051c820191505b81811015610b7b57828155600101610b68565b5050505b505050565b815167ffffffffffffffff811115610b9e57610b9e610949565b610bb281610bac8454610afb565b84610b35565b602080601f831160018114610be75760008415610bcf5750858301515b600019600386901b1c1916600185901b178555610b7b565b600085815260208120601f198616915b82811015610c1657888601518255948401946001909101908401610bf7565b5085821015610c345787850151600019600388901b60f8161c191681555b5050505050600190811b0190555056fea2646970667358221220eca7bebdd1c93b85a64c6633fc858cd74cb94c3b4221e28e74d3f70fa8fb034264736f6c63430008130033",
  "immutableReferences": {},
  "source": "// SPDX-License-Identifier: MIT\r\npragma solidity ^0.8.19;\r\n\r\ncontract TransactionLedger {\r\n    struct Transaction {\r\n        string cropName;\r\n        uint256 pricePerKg;\r\n        uint256 quantity;\r\n        string buyerName;\r\n        string buyerAddress;\r\n        string sellerName;\r\n        string sellerAddress;\r\n        uint256 totalAmount;\r\n        uint256 timestamp;\r\n    }\r\n\r\n    Transaction[] public transactions;\r\n\r\n    function storeTransaction(\r\n        string memory cropName,\r\n        uint256 pricePerKg,\r\n        uint256 quantity,\r\n        string memory buyerName,\r\n        string memory buyerAddress,\r\n        string memory sellerName,\r\n        string memory sellerAddress,\r\n        uint256 totalAmount,\r\n        uint256 timestamp\r\n    ) public {\r\n        Transaction memory txn = Transaction(\r\n            cropName,\r\n            pricePerKg,\r\n            quantity,\r\n            buyerName,\r\n            buyerAddress,\r\n            sellerName,\r\n            sellerAddress,\r\n            totalAmount,\r\n            timestamp\r\n        );\r\n        transactions.push(txn);\r\n    }\r\n\r\n    function getTransactionCount() public view returns (uint256) {\r\n        return transactions.length;\r\n    }\r\n\r\n    function getTransaction(uint256 index) public view returns (\r\n        string memory, uint256, uint256,\r\n        string memory, string memory,\r\n        string memory, string memory,\r\n        uint256, uint256\r\n    ) {\r\n        Transaction memory txn = transactions[index];\r\n        return (\r\n            txn.cropName,\r\n            txn.pricePerKg,\r\n            txn.quantity,\r\n            txn.buyerName,\r\n            txn.buyerAddress,\r\n            txn.sellerName,\r\n            txn.sellerAddress,\r\n            txn.totalAmount,\r\n            txn.timestamp\r\n        );\r\n    }\r\n}\r\n",
  "sourcePath": "C:\\Users\\Dan Mody\\OneDrive\\Desktop\\mp\\GitHub\\HarvestHub\\b\\contracts\\TransactionLedger.sol",
  "compiler": {
    "name": "solc",
    "version": "0.8.19+commit.7dd6d404.Emscripten.clang"
  },
  "schemaVersion": "3.4.16",
  "updatedAt": "2025-04-08T06:55:22.328Z",
  "networkType": "ethereum",
  "devdoc": {
    "kind": "dev",
    "methods": {},
    "version": 1
  },
  "userdoc": {
    "kind": "user",
    "methods": {},
    "version": 1
  }
}