{
  "contractName": "HarvestHubTransactions",
  "abi": [
    {
      "anonymous": false,
      "inputs": [
        {
          "indexed": true,
          "internalType": "address",
          "name": "sender",
          "type": "address"
        },
        {
          "indexed": true,
          "internalType": "address",
          "name": "receiver",
          "type": "address"
        },
        {
          "indexed": false,
          "internalType": "uint256",
          "name": "amount",
          "type": "uint256"
        },
        {
          "indexed": false,
          "internalType": "string",
          "name": "cropName",
          "type": "string"
        },
        {
          "indexed": false,
          "internalType": "string",
          "name": "message",
          "type": "string"
        },
        {
          "indexed": false,
          "internalType": "uint256",
          "name": "timestamp",
          "type": "uint256"
        }
      ],
      "name": "Transfer",
      "type": "event"
    },
    {
      "inputs": [
        {
          "internalType": "address",
          "name": "_receiver",
          "type": "address"
        },
        {
          "internalType": "uint256",
          "name": "_amount",
          "type": "uint256"
        },
        {
          "internalType": "string",
          "name": "_cropName",
          "type": "string"
        },
        {
          "internalType": "string",
          "name": "_message",
          "type": "string"
        }
      ],
      "name": "addTransaction",
      "outputs": [],
      "stateMutability": "nonpayable",
      "type": "function"
    },
    {
      "inputs": [],
      "name": "getAllTransactions",
      "outputs": [
        {
          "components": [
            {
              "internalType": "address",
              "name": "sender",
              "type": "address"
            },
            {
              "internalType": "address",
              "name": "receiver",
              "type": "address"
            },
            {
              "internalType": "uint256",
              "name": "amount",
              "type": "uint256"
            },
            {
              "internalType": "string",
              "name": "cropName",
              "type": "string"
            },
            {
              "internalType": "string",
              "name": "message",
              "type": "string"
            },
            {
              "internalType": "uint256",
              "name": "timestamp",
              "type": "uint256"
            }
          ],
          "internalType": "struct HarvestHubTransactions.Transaction[]",
          "name": "",
          "type": "tuple[]"
        }
      ],
      "stateMutability": "view",
      "type": "function"
    },
    {
      "inputs": [],
      "name": "getTransactionCount",
      "outputs": [
        {
          "internalType": "uint256",
          "name": "",
          "type": "uint256"
        }
      ],
      "stateMutability": "view",
      "type": "function"
    }
  ],
  "bytecode": "0x608060405234801561000f575f80fd5b50610cd18061001d5f395ff3fe608060405234801561000f575f80fd5b506004361061003f575f3560e01c806327506f53146100435780632e7700f0146100615780636d1b6bb11461007f575b5f80fd5b61004b61009b565b60405161005891906106c4565b60405180910390f35b6100696102d3565b60405161007691906106f3565b60405180910390f35b6100996004803603810190610094919061089d565b6102de565b005b60605f805480602002602001604051908101604052809291908181526020015f905b828210156102ca578382905f5260205f2090600602016040518060c00160405290815f82015f9054906101000a900473ffffffffffffffffffffffffffffffffffffffff1673ffffffffffffffffffffffffffffffffffffffff1673ffffffffffffffffffffffffffffffffffffffff168152602001600182015f9054906101000a900473ffffffffffffffffffffffffffffffffffffffff1673ffffffffffffffffffffffffffffffffffffffff1673ffffffffffffffffffffffffffffffffffffffff168152602001600282015481526020016003820180546101a190610966565b80601f01602080910402602001604051908101604052809291908181526020018280546101cd90610966565b80156102185780601f106101ef57610100808354040283529160200191610218565b820191905f5260205f20905b8154815290600101906020018083116101fb57829003601f168201915b5050505050815260200160048201805461023190610966565b80601f016020809104026020016040519081016040528092919081815260200182805461025d90610966565b80156102a85780601f1061027f576101008083540402835291602001916102a8565b820191905f5260205f20905b81548152906001019060200180831161028b57829003601f168201915b50505050508152602001600582015481525050815260200190600101906100bd565b50505050905090565b5f8080549050905090565b5f6040518060c001604052803373ffffffffffffffffffffffffffffffffffffffff1681526020018673ffffffffffffffffffffffffffffffffffffffff16815260200185815260200184815260200183815260200142815250908060018154018082558091505060019003905f5260205f2090600602015f909190919091505f820151815f015f6101000a81548173ffffffffffffffffffffffffffffffffffffffff021916908373ffffffffffffffffffffffffffffffffffffffff1602179055506020820151816001015f6101000a81548173ffffffffffffffffffffffffffffffffffffffff021916908373ffffffffffffffffffffffffffffffffffffffff1602179055506040820151816002015560608201518160030190816104079190610b33565b50608082015181600401908161041d9190610b33565b5060a0820151816005015550508373ffffffffffffffffffffffffffffffffffffffff163373ffffffffffffffffffffffffffffffffffffffff167f5e245fe3ab1aa0e8ad77928e6d608e234861c6f4cc61f42cdb647db3f4f3ca468585854260405161048d9493929190610c4a565b60405180910390a350505050565b5f81519050919050565b5f82825260208201905092915050565b5f819050602082019050919050565b5f73ffffffffffffffffffffffffffffffffffffffff82169050919050565b5f6104ed826104c4565b9050919050565b6104fd816104e3565b82525050565b5f819050919050565b61051581610503565b82525050565b5f81519050919050565b5f82825260208201905092915050565b5f5b83811015610552578082015181840152602081019050610537565b5f8484015250505050565b5f601f19601f8301169050919050565b5f6105778261051b565b6105818185610525565b9350610591818560208601610535565b61059a8161055d565b840191505092915050565b5f60c083015f8301516105ba5f8601826104f4565b5060208301516105cd60208601826104f4565b5060408301516105e0604086018261050c565b50606083015184820360608601526105f8828261056d565b91505060808301518482036080860152610612828261056d565b91505060a083015161062760a086018261050c565b508091505092915050565b5f61063d83836105a5565b905092915050565b5f602082019050919050565b5f61065b8261049b565b61066581856104a5565b935083602082028501610677856104b5565b805f5b858110156106b257848403895281516106938582610632565b945061069e83610645565b925060208a0199505060018101905061067a565b50829750879550505050505092915050565b5f6020820190508181035f8301526106dc8184610651565b905092915050565b6106ed81610503565b82525050565b5f6020820190506107065f8301846106e4565b92915050565b5f604051905090565b5f80fd5b5f80fd5b610726816104e3565b8114610730575f80fd5b50565b5f813590506107418161071d565b92915050565b61075081610503565b811461075a575f80fd5b50565b5f8135905061076b81610747565b92915050565b5f80fd5b5f80fd5b7f4e487b71000000000000000000000000000000000000000000000000000000005f52604160045260245ffd5b6107af8261055d565b810181811067ffffffffffffffff821117156107ce576107cd610779565b5b80604052505050565b5f6107e061070c565b90506107ec82826107a6565b919050565b5f67ffffffffffffffff82111561080b5761080a610779565b5b6108148261055d565b9050602081019050919050565b828183375f83830152505050565b5f61084161083c846107f1565b6107d7565b90508281526020810184848401111561085d5761085c610775565b5b610868848285610821565b509392505050565b5f82601f83011261088457610883610771565b5b813561089484826020860161082f565b91505092915050565b5f805f80608085870312156108b5576108b4610715565b5b5f6108c287828801610733565b94505060206108d38782880161075d565b935050604085013567ffffffffffffffff8111156108f4576108f3610719565b5b61090087828801610870565b925050606085013567ffffffffffffffff81111561092157610920610719565b5b61092d87828801610870565b91505092959194509250565b7f4e487b71000000000000000000000000000000000000000000000000000000005f52602260045260245ffd5b5f600282049050600182168061097d57607f821691505b6020821081036109905761098f610939565b5b50919050565b5f819050815f5260205f209050919050565b5f6020601f8301049050919050565b5f82821b905092915050565b5f600883026109f27fffffffffffffffffffffffffffffffffffffffffffffffffffffffffffffffff826109b7565b6109fc86836109b7565b95508019841693508086168417925050509392505050565b5f819050919050565b5f610a37610a32610a2d84610503565b610a14565b610503565b9050919050565b5f819050919050565b610a5083610a1d565b610a64610a5c82610a3e565b8484546109c3565b825550505050565b5f90565b610a78610a6c565b610a83818484610a47565b505050565b5b81811015610aa657610a9b5f82610a70565b600181019050610a89565b5050565b601f821115610aeb57610abc81610996565b610ac5846109a8565b81016020851015610ad4578190505b610ae8610ae0856109a8565b830182610a88565b50505b505050565b5f82821c905092915050565b5f610b0b5f1984600802610af0565b1980831691505092915050565b5f610b238383610afc565b9150826002028217905092915050565b610b3c8261051b565b67ffffffffffffffff811115610b5557610b54610779565b5b610b5f8254610966565b610b6a828285610aaa565b5f60209050601f831160018114610b9b575f8415610b89578287015190505b610b938582610b18565b865550610bfa565b601f198416610ba986610996565b5f5b82811015610bd057848901518255600182019150602085019450602081019050610bab565b86831015610bed5784890151610be9601f891682610afc565b8355505b6001600288020188555050505b505050505050565b5f82825260208201905092915050565b5f610c1c8261051b565b610c268185610c02565b9350610c36818560208601610535565b610c3f8161055d565b840191505092915050565b5f608082019050610c5d5f8301876106e4565b8181036020830152610c6f8186610c12565b90508181036040830152610c838185610c12565b9050610c9260608301846106e4565b9594505050505056fea26469706673582212207fe5167d796a6c1e592dbda3e071c34178ae955a803209e3194e753165096dca64736f6c63430008150033",
  "immutableReferences": {},
  "source": "// SPDX-License-Identifier: MIT\r\npragma solidity ^0.8.0;\r\n\r\ncontract HarvestHubTransactions {\r\n    struct Transaction {\r\n        address sender;\r\n        address receiver;\r\n        uint amount;\r\n        string cropName;\r\n        string message;\r\n        uint timestamp;\r\n    }\r\n\r\n    Transaction[] private transactions;\r\n\r\n    event Transfer(\r\n        address indexed sender,\r\n        address indexed receiver,\r\n        uint amount,\r\n        string cropName,\r\n        string message,\r\n        uint timestamp\r\n    );\r\n\r\n    function addTransaction(\r\n        address _receiver,\r\n        uint _amount,\r\n        string memory _cropName,\r\n        string memory _message\r\n    ) public {\r\n        transactions.push(\r\n            Transaction(msg.sender, _receiver, _amount, _cropName, _message, block.timestamp)\r\n        );\r\n        emit Transfer(msg.sender, _receiver, _amount, _cropName, _message, block.timestamp);\r\n    }\r\n\r\n    function getAllTransactions() public view returns (Transaction[] memory) {\r\n        return transactions;\r\n    }\r\n\r\n    function getTransactionCount() public view returns (uint) {\r\n        return transactions.length;\r\n    }\r\n}\r\n",
  "sourcePath": "C:\\Users\\DELL\\Desktop\\HarvestHub\\contracts\\HarvestHubTransactions.sol",
  "compiler": {
    "name": "solc",
    "version": "0.8.21+commit.d9974bed.Emscripten.clang"
  },
  "schemaVersion": "3.4.16",
  "updatedAt": "2025-02-04T08:41:52.309Z",
  "devdoc": {
    "kind": "dev",
    "methods": {},
    "version": 1
  },
  "userdoc": {
    "kind": "user",
    "methods": {},
    "version": 1
  }
}